{
  "_format": "hh-sol-artifact-1",
  "contractName": "Dao",
  "sourceName": "contracts/Dao.sol",
  "abi": [
    {
      "inputs": [],
      "stateMutability": "nonpayable",
      "type": "constructor"
    },
    {
      "anonymous": false,
      "inputs": [
        {
          "indexed": false,
          "internalType": "bool",
          "name": "refreshed",
          "type": "bool"
        }
      ],
      "name": "daoRefreshed",
      "type": "event"
    },
    {
      "anonymous": false,
      "inputs": [
        {
          "indexed": false,
          "internalType": "bool",
          "name": "joined",
          "type": "bool"
        }
      ],
      "name": "joined",
      "type": "event"
    },
    {
      "anonymous": false,
      "inputs": [
        {
          "indexed": false,
          "internalType": "uint256",
          "name": "_proposal",
          "type": "uint256"
        }
      ],
      "name": "proposalSubmitted",
      "type": "event"
    },
    {
      "anonymous": false,
      "inputs": [
        {
          "indexed": false,
          "internalType": "bool",
          "name": "_proposal",
          "type": "bool"
        }
      ],
      "name": "receivingProposal",
      "type": "event"
    },
    {
      "anonymous": false,
      "inputs": [
        {
          "indexed": false,
          "internalType": "uint256",
          "name": "_proposal",
          "type": "uint256"
        },
        {
          "indexed": false,
          "internalType": "address",
          "name": "_address",
          "type": "address"
        }
      ],
      "name": "voted",
      "type": "event"
    },
    {
      "anonymous": false,
      "inputs": [
        {
          "indexed": false,
          "internalType": "bool",
          "name": "ended",
          "type": "bool"
        }
      ],
      "name": "votingEnded",
      "type": "event"
    },
    {
      "anonymous": false,
      "inputs": [
        {
          "indexed": false,
          "internalType": "bool",
          "name": "started",
          "type": "bool"
        }
      ],
      "name": "votingStarted",
      "type": "event"
    },
    {
      "inputs": [
        {
          "internalType": "uint256",
          "name": "",
          "type": "uint256"
        }
      ],
      "name": "ListOfProposals",
      "outputs": [
        {
          "internalType": "uint256",
          "name": "uid",
          "type": "uint256"
        },
        {
          "internalType": "uint256",
          "name": "numberOfVotes",
          "type": "uint256"
        }
      ],
      "stateMutability": "view",
      "type": "function"
    },
    {
      "inputs": [],
      "name": "allowProposals",
      "outputs": [],
      "stateMutability": "nonpayable",
      "type": "function"
    },
    {
      "inputs": [],
      "name": "allowVoting",
      "outputs": [],
      "stateMutability": "nonpayable",
      "type": "function"
    },
    {
      "inputs": [],
      "name": "currentState",
      "outputs": [
        {
          "internalType": "enum Dao.CurrentState",
          "name": "",
          "type": "uint8"
        }
      ],
      "stateMutability": "view",
      "type": "function"
    },
    {
      "inputs": [],
      "name": "endVoting",
      "outputs": [],
      "stateMutability": "nonpayable",
      "type": "function"
    },
    {
      "inputs": [],
      "name": "getProposals",
      "outputs": [
        {
          "internalType": "uint256[]",
          "name": "proposale",
          "type": "uint256[]"
        }
      ],
      "stateMutability": "view",
      "type": "function"
    },
    {
      "inputs": [],
      "name": "getResults",
      "outputs": [],
      "stateMutability": "nonpayable",
      "type": "function"
    },
    {
      "inputs": [],
      "name": "joinDao",
      "outputs": [],
      "stateMutability": "nonpayable",
      "type": "function"
    },
    {
      "inputs": [
        {
          "internalType": "uint256",
          "name": "",
          "type": "uint256"
        }
      ],
      "name": "proposals",
      "outputs": [
        {
          "internalType": "uint256",
          "name": "",
          "type": "uint256"
        }
      ],
      "stateMutability": "view",
      "type": "function"
    },
    {
      "inputs": [],
      "name": "refresh",
      "outputs": [],
      "stateMutability": "nonpayable",
      "type": "function"
    },
    {
      "inputs": [
        {
          "internalType": "uint256",
          "name": "_proposal",
          "type": "uint256"
        }
      ],
      "name": "submitProposal",
      "outputs": [],
      "stateMutability": "nonpayable",
      "type": "function"
    },
    {
      "inputs": [],
      "name": "totalNumberOfMembers",
      "outputs": [
        {
          "internalType": "uint256",
          "name": "",
          "type": "uint256"
        }
      ],
      "stateMutability": "view",
      "type": "function"
    },
    {
      "inputs": [],
      "name": "totalNumberOfProposals",
      "outputs": [
        {
          "internalType": "uint256",
          "name": "",
          "type": "uint256"
        }
      ],
      "stateMutability": "view",
      "type": "function"
    },
    {
      "inputs": [],
      "name": "totalNumberOfVotes",
      "outputs": [
        {
          "internalType": "uint256",
          "name": "",
          "type": "uint256"
        }
      ],
      "stateMutability": "view",
      "type": "function"
    },
    {
      "inputs": [
        {
          "internalType": "uint256",
          "name": "_proposal",
          "type": "uint256"
        }
      ],
      "name": "vote",
      "outputs": [],
      "stateMutability": "nonpayable",
      "type": "function"
    },
    {
      "inputs": [],
      "name": "winningProposal",
      "outputs": [
        {
          "internalType": "uint256",
          "name": "",
          "type": "uint256"
        }
      ],
      "stateMutability": "view",
      "type": "function"
    }
  ],
  "bytecode": "0x608060405234801561001057600080fd5b5060008060006101000a81548160ff0219169083600281111561005c577f4e487b7100000000000000000000000000000000000000000000000000000000600052602160045260246000fd5b0217905550600060088190555060016009819055506000600a819055506001600660003373ffffffffffffffffffffffffffffffffffffffff1673ffffffffffffffffffffffffffffffffffffffff16815260200190815260200160002060006101000a81548160ff0219169083151502179055506003339080600181540180825580915050600190039060005260206000200160009091909190916101000a81548173ffffffffffffffffffffffffffffffffffffffff021916908373ffffffffffffffffffffffffffffffffffffffff160217905550612114806101436000396000f3fe608060405234801561001057600080fd5b50600436106101005760003560e01c806362564c4811610097578063dd61fc8911610066578063dd61fc891461023e578063e74e95b414610248578063f84043fa14610266578063f8ac93e81461028457610100565b806362564c48146101f0578063736d95aa1461020e578063af35f4191461022a578063c3403ddf1461023457610100565b80634717f97c116100d35780634717f97c1461017957806352a24e3114610183578063545f0add146101a1578063609ff1bd146101d257610100565b80630121b93f14610105578063013cf08b146101215780630c3f6acf146101515780633ed295ec1461016f575b600080fd5b61011f600480360381019061011a91906116e0565b61028e565b005b61013b600480360381019061013691906116e0565b610664565b6040516101489190611e92565b60405180910390f35b610159610688565b6040516101669190611cb7565b60405180910390f35b610177610699565b005b61018161082b565b005b61018b6108fa565b6040516101989190611e92565b60405180910390f35b6101bb60048036038101906101b691906116e0565b610900565b6040516101c9929190611ed6565b60405180910390f35b6101da610934565b6040516101e79190611e92565b60405180910390f35b6101f861093a565b6040516102059190611c7a565b60405180910390f35b610228600480360381019061022391906116e0565b610992565b005b610232610c54565b005b61023c610d9f565b005b610246610f2e565b005b610250611192565b60405161025d9190611e92565b60405180910390f35b61026e611198565b60405161027b9190611e92565b60405180910390f35b61028c61119e565b005b60018060028111156102c9577f4e487b7100000000000000000000000000000000000000000000000000000000600052602160045260246000fd5b60008054906101000a900460ff16600281111561030f577f4e487b7100000000000000000000000000000000000000000000000000000000600052602160045260246000fd5b1461034f576040517f08c379a000000000000000000000000000000000000000000000000000000000815260040161034690611db2565b60405180910390fd5b60011515600660003373ffffffffffffffffffffffffffffffffffffffff1673ffffffffffffffffffffffffffffffffffffffff16815260200190815260200160002060009054906101000a900460ff161515146103e2576040517f08c379a00000000000000000000000000000000000000000000000000000000081526004016103d990611cf2565b60405180910390fd5b60001515600560003373ffffffffffffffffffffffffffffffffffffffff1673ffffffffffffffffffffffffffffffffffffffff16815260200190815260200160002060009054906101000a900460ff16151514610475576040517f08c379a000000000000000000000000000000000000000000000000000000000815260040161046c90611cd2565b60405180910390fd5b600115156004600084815260200190815260200160002060009054906101000a900460ff161515146104dc576040517f08c379a00000000000000000000000000000000000000000000000000000000081526004016104d390611e12565b60405180910390fd5b6001600560003373ffffffffffffffffffffffffffffffffffffffff1673ffffffffffffffffffffffffffffffffffffffff16815260200190815260200160002060006101000a81548160ff02191690831515021790555060005b60018054905081101561060c57826001828154811061057f577f4e487b7100000000000000000000000000000000000000000000000000000000600052603260045260246000fd5b90600052602060002090600202016000015414156105f957600181815481106105d1577f4e487b7100000000000000000000000000000000000000000000000000000000600052603260045260246000fd5b906000526020600020906002020160010160008154809291906105f39061200c565b91905055505b80806106049061200c565b915050610537565b506001600a60008282546106209190611f49565b925050819055507f5277b4aef6ff52b684d3331f3dc11a365dc48e3f9eb6a8ed8015e97ae4c3a7518233604051610658929190611ead565b60405180910390a15050565b6002818154811061067457600080fd5b906000526020600020016000915090505481565b60008054906101000a900460ff1681565b60018080549050116106e0576040517f08c379a00000000000000000000000000000000000000000000000000000000081526004016106d790611e52565b60405180910390fd5b6001600281111561071a577f4e487b7100000000000000000000000000000000000000000000000000000000600052602160045260246000fd5b60008054906101000a900460ff166002811115610760577f4e487b7100000000000000000000000000000000000000000000000000000000600052602160045260246000fd5b14156107a1576040517f08c379a000000000000000000000000000000000000000000000000000000000815260040161079890611e32565b60405180910390fd5b60016000806101000a81548160ff021916908360028111156107ec577f4e487b7100000000000000000000000000000000000000000000000000000000600052602160045260246000fd5b02179055507fac7ac6de747e5905ed59f4df59fe27bb297e7a9b91e5031378fd665ffe77a7dc60016040516108219190611c9c565b60405180910390a1565b600280811115610864577f4e487b7100000000000000000000000000000000000000000000000000000000600052602160045260246000fd5b60008054906101000a900460ff1660028111156108aa577f4e487b7100000000000000000000000000000000000000000000000000000000600052602160045260246000fd5b146108ea576040517f08c379a00000000000000000000000000000000000000000000000000000000081526004016108e190611d72565b60405180910390fd5b6108f26114fd565b600781905550565b60095481565b6001818154811061091057600080fd5b90600052602060002090600202016000915090508060000154908060010154905082565b60075481565b6060600280548060200260200160405190810160405280929190818152602001828054801561098857602002820191906000526020600020905b815481526020019060010190808311610974575b5050505050905090565b60008060028111156109cd577f4e487b7100000000000000000000000000000000000000000000000000000000600052602160045260246000fd5b60008054906101000a900460ff166002811115610a13577f4e487b7100000000000000000000000000000000000000000000000000000000600052602160045260246000fd5b14610a53576040517f08c379a0000000000000000000000000000000000000000000000000000000008152600401610a4a90611db2565b60405180910390fd5b60011515600660003373ffffffffffffffffffffffffffffffffffffffff1673ffffffffffffffffffffffffffffffffffffffff16815260200190815260200160002060009054906101000a900460ff16151514610ae6576040517f08c379a0000000000000000000000000000000000000000000000000000000008152600401610add90611dd2565b60405180910390fd5b600015156004600084815260200190815260200160002060009054906101000a900460ff16151514610b4d576040517f08c379a0000000000000000000000000000000000000000000000000000000008152600401610b4490611d12565b60405180910390fd5b600060405180604001604052808481526020016000815250905060016004600085815260200190815260200160002060006101000a81548160ff021916908315150217905550600181908060018154018082558091505060019003906000526020600020906002020160009091909190915060008201518160000155602082015181600101555050600160086000828254610be89190611f49565b9250508190555060028390806001815401808255809150506001900390600052602060002001600090919091909150557f7a874cfa0440d6be8d026f06987e8c88e31b7385782cd3c712be1c046200718b83604051610c479190611e92565b60405180910390a1505050565b60006002811115610c8e577f4e487b7100000000000000000000000000000000000000000000000000000000600052602160045260246000fd5b60008054906101000a900460ff166002811115610cd4577f4e487b7100000000000000000000000000000000000000000000000000000000600052602160045260246000fd5b1415610d15576040517f08c379a0000000000000000000000000000000000000000000000000000000008152600401610d0c90611d32565b60405180910390fd5b60008060006101000a81548160ff02191690836002811115610d60577f4e487b7100000000000000000000000000000000000000000000000000000000600052602160045260246000fd5b02179055507f04909bca3bac1880b28873618b17523d31751776958df5d55e032286e13b02fe6001604051610d959190611c9c565b60405180910390a1565b6000600a5411610de4576040517f08c379a0000000000000000000000000000000000000000000000000000000008152600401610ddb90611d52565b60405180910390fd5b600280811115610e1d577f4e487b7100000000000000000000000000000000000000000000000000000000600052602160045260246000fd5b60008054906101000a900460ff166002811115610e63577f4e487b7100000000000000000000000000000000000000000000000000000000600052602160045260246000fd5b1415610ea4576040517f08c379a0000000000000000000000000000000000000000000000000000000008152600401610e9b90611d92565b60405180910390fd5b60026000806101000a81548160ff02191690836002811115610eef577f4e487b7100000000000000000000000000000000000000000000000000000000600052602160045260246000fd5b02179055507f32cae7a7dc642d9e2bfff3178c95ee21818b6a41595a6004f594a90e1f0f72e36001604051610f249190611c9c565b60405180910390a1565b6000806002811115610f69577f4e487b7100000000000000000000000000000000000000000000000000000000600052602160045260246000fd5b60008054906101000a900460ff166002811115610faf577f4e487b7100000000000000000000000000000000000000000000000000000000600052602160045260246000fd5b14610fef576040517f08c379a0000000000000000000000000000000000000000000000000000000008152600401610fe690611db2565b60405180910390fd5b60001515600660003373ffffffffffffffffffffffffffffffffffffffff1673ffffffffffffffffffffffffffffffffffffffff16815260200190815260200160002060009054906101000a900460ff16151514611082576040517f08c379a000000000000000000000000000000000000000000000000000000000815260040161107990611e72565b60405180910390fd5b6001600660003373ffffffffffffffffffffffffffffffffffffffff1673ffffffffffffffffffffffffffffffffffffffff16815260200190815260200160002060006101000a81548160ff0219169083151502179055506003339080600181540180825580915050600190039060005260206000200160009091909190916101000a81548173ffffffffffffffffffffffffffffffffffffffff021916908373ffffffffffffffffffffffffffffffffffffffff1602179055506001600960008282546111509190611f49565b925050819055507ff1eefd2c09cbdb435f3a4073f0ecf7e72ce631eff1381654287f3ca94487e51160016040516111879190611c9c565b60405180910390a150565b60085481565b600a5481565b6000600954116111e3576040517f08c379a00000000000000000000000000000000000000000000000000000000081526004016111da90611df2565b60405180910390fd5b60008060006101000a81548160ff0219169083600281111561122e577f4e487b7100000000000000000000000000000000000000000000000000000000600052602160045260246000fd5b02179055506000600781905550600060088190555060006009819055506000600a8190555060005b6003805490508110156113ee57600060066000600384815481106112a3577f4e487b7100000000000000000000000000000000000000000000000000000000600052603260045260246000fd5b9060005260206000200160009054906101000a900473ffffffffffffffffffffffffffffffffffffffff1673ffffffffffffffffffffffffffffffffffffffff1673ffffffffffffffffffffffffffffffffffffffff16815260200190815260200160002060006101000a81548160ff0219169083151502179055506000600560006003848154811061135f577f4e487b7100000000000000000000000000000000000000000000000000000000600052603260045260246000fd5b9060005260206000200160009054906101000a900473ffffffffffffffffffffffffffffffffffffffff1673ffffffffffffffffffffffffffffffffffffffff1673ffffffffffffffffffffffffffffffffffffffff16815260200190815260200160002060006101000a81548160ff02191690831515021790555080806113e69061200c565b915050611256565b50600060018054905011156114995760005b600180549050811015611497576000600460006001848154811061144d577f4e487b7100000000000000000000000000000000000000000000000000000000600052603260045260246000fd5b906000526020600020906002020160000154815260200190815260200160002060006101000a81548160ff021916908315150217905550808061148f9061200c565b915050611400565b505b600360006114a79190611621565b600160006114b59190611642565b600260006114c39190611666565b7f32caedec523e2a1b15e017e4ac7f08a67b01e6e7128699b81f3b4111b4d6d8f960016040516114f39190611c9c565b60405180910390a1565b600080600090506000805b600180549050811015611618578260018281548110611550577f4e487b7100000000000000000000000000000000000000000000000000000000600052603260045260246000fd5b906000526020600020906002020160010154111561160557600181815481106115a2577f4e487b7100000000000000000000000000000000000000000000000000000000600052603260045260246000fd5b9060005260206000209060020201600101549250600181815481106115f0577f4e487b7100000000000000000000000000000000000000000000000000000000600052603260045260246000fd5b90600052602060002090600202016000015491505b80806116109061200c565b915050611508565b50809250505090565b508054600082559060005260206000209081019061163f9190611687565b50565b508054600082556002029060005260206000209081019061166391906116a4565b50565b50805460008255906000526020600020908101906116849190611687565b50565b5b808211156116a0576000816000905550600101611688565b5090565b5b808211156116c7576000808201600090556001820160009055506002016116a5565b5090565b6000813590506116da816120c7565b92915050565b6000602082840312156116f257600080fd5b6000611700848285016116cb565b91505092915050565b60006117158383611c5c565b60208301905092915050565b61172a81611f9f565b82525050565b600061173b82611f0f565b6117458185611f27565b935061175083611eff565b8060005b838110156117815781516117688882611709565b975061177383611f1a565b925050600181019050611754565b5085935050505092915050565b61179781611fb1565b82525050565b6117a681611ffa565b82525050565b60006117b9601683611f38565b91507f596f752063616e206f6e6c7920766f7465206f6e6365000000000000000000006000830152602082019050919050565b60006117f9603a83611f38565b91507f596f7520617265206e6f742061206d656d626572206f66207468652044616f2c60008301527f206f6e6c792044616f206d656d626572732063616e20766f74650000000000006020830152604082019050919050565b600061185f601783611f38565b91507f70726f706f73616c20616c7265616479206578697374730000000000000000006000830152602082019050919050565b600061189f602b83611f38565b91507f5375626d697373696f6e206f662050726f706f73616c2069732063757272656e60008301527f746c7920616c6c6f7765640000000000000000000000000000000000000000006020830152604082019050919050565b6000611905600c83611f38565b91507f6e6f20766f7465732079657400000000000000000000000000000000000000006000830152602082019050919050565b6000611945601983611f38565b91507f656e6420766f74696e6720746f2067657420726573756c7473000000000000006000830152602082019050919050565b6000611985601383611f38565b91507f766f74657320616c726561647920656e646564000000000000000000000000006000830152602082019050919050565b60006119c5602a83611f38565b91507f7468652063757272656e742044616f20737461746520646f6573206e6f74207060008301527f65726d69742074686973000000000000000000000000000000000000000000006020830152604082019050919050565b6000611a2b603983611f38565b91507f506c656173652052656769737465722077697468207468652044616f2062656660008301527f6f7265207375626d697474696e6720612070726f706f73616c000000000000006020830152604082019050919050565b6000611a91601483611f38565b91507f44616f20697320667265736820616c72656164790000000000000000000000006000830152602082019050919050565b6000611ad1604683611f38565b91507f596f752063616e206f6e6c7920766f7465207375626d69747465642070726f7060008301527f6f73616c732c20746869732070726f706f73616c20776173206e6f742073756260208301527f6d697474656400000000000000000000000000000000000000000000000000006040830152606082019050919050565b6000611b5d601683611f38565b91507f766f74696e6720616c726561647920656e61626c6564000000000000000000006000830152602082019050919050565b6000611b9d603383611f38565b91507f6e6f2070726f706f73616c20746f20766f746520666f72206f72206f6e6c792060008301527f6f6e652070726f706f73616c20657869737473000000000000000000000000006020830152604082019050919050565b6000611c03602683611f38565b91507f796f752061726520616c7265616479207265676973746572656420617320612060008301527f6d656d62657200000000000000000000000000000000000000000000000000006020830152604082019050919050565b611c6581611ff0565b82525050565b611c7481611ff0565b82525050565b60006020820190508181036000830152611c948184611730565b905092915050565b6000602082019050611cb1600083018461178e565b92915050565b6000602082019050611ccc600083018461179d565b92915050565b60006020820190508181036000830152611ceb816117ac565b9050919050565b60006020820190508181036000830152611d0b816117ec565b9050919050565b60006020820190508181036000830152611d2b81611852565b9050919050565b60006020820190508181036000830152611d4b81611892565b9050919050565b60006020820190508181036000830152611d6b816118f8565b9050919050565b60006020820190508181036000830152611d8b81611938565b9050919050565b60006020820190508181036000830152611dab81611978565b9050919050565b60006020820190508181036000830152611dcb816119b8565b9050919050565b60006020820190508181036000830152611deb81611a1e565b9050919050565b60006020820190508181036000830152611e0b81611a84565b9050919050565b60006020820190508181036000830152611e2b81611ac4565b9050919050565b60006020820190508181036000830152611e4b81611b50565b9050919050565b60006020820190508181036000830152611e6b81611b90565b9050919050565b60006020820190508181036000830152611e8b81611bf6565b9050919050565b6000602082019050611ea76000830184611c6b565b92915050565b6000604082019050611ec26000830185611c6b565b611ecf6020830184611721565b9392505050565b6000604082019050611eeb6000830185611c6b565b611ef86020830184611c6b565b9392505050565b6000819050602082019050919050565b600081519050919050565b6000602082019050919050565b600082825260208201905092915050565b600082825260208201905092915050565b6000611f5482611ff0565b9150611f5f83611ff0565b9250827fffffffffffffffffffffffffffffffffffffffffffffffffffffffffffffffff03821115611f9457611f93612055565b5b828201905092915050565b6000611faa82611fd0565b9050919050565b60008115159050919050565b6000819050611fcb826120b3565b919050565b600073ffffffffffffffffffffffffffffffffffffffff82169050919050565b6000819050919050565b600061200582611fbd565b9050919050565b600061201782611ff0565b91507fffffffffffffffffffffffffffffffffffffffffffffffffffffffffffffffff82141561204a57612049612055565b5b600182019050919050565b7f4e487b7100000000000000000000000000000000000000000000000000000000600052601160045260246000fd5b7f4e487b7100000000000000000000000000000000000000000000000000000000600052602160045260246000fd5b600381106120c4576120c3612084565b5b50565b6120d081611ff0565b81146120db57600080fd5b5056fea26469706673582212205e27eb35b21c851ef4a4197521d358d6098a9d21611c8225d6305e67b4612bf364736f6c63430008000033",
  "linkReferences": {},
  "deployedLinkReferences": {}
}